{
  "address": "0x2533b505b4a60EA32ea606BF623aDBE949a0E19E",
  "abi": [
    {
      "inputs": [
        {
          "internalType": "address",
          "name": "owner",
          "type": "address"
        },
        {
          "internalType": "string",
          "name": "_name",
          "type": "string"
        },
        {
          "internalType": "string",
          "name": "_symbol",
          "type": "string"
        },
        {
          "internalType": "contract ISuperfluid",
          "name": "host",
          "type": "address"
        },
        {
          "internalType": "contract ISuperToken",
          "name": "acceptedToken",
          "type": "address"
        }
      ],
      "stateMutability": "nonpayable",
      "type": "constructor"
    },
    {
      "inputs": [],
      "name": "InvalidAgreement",
      "type": "error"
    },
    {
      "inputs": [],
      "name": "InvalidReceiver",
      "type": "error"
    },
    {
      "inputs": [],
      "name": "InvalidToken",
      "type": "error"
    },
    {
      "inputs": [],
      "name": "ReceiverIsSuperApp",
      "type": "error"
    },
    {
      "inputs": [],
      "name": "Unauthorized",
      "type": "error"
    },
    {
      "anonymous": false,
      "inputs": [
        {
          "indexed": true,
          "internalType": "address",
          "name": "owner",
          "type": "address"
        },
        {
          "indexed": true,
          "internalType": "address",
          "name": "approved",
          "type": "address"
        },
        {
          "indexed": true,
          "internalType": "uint256",
          "name": "tokenId",
          "type": "uint256"
        }
      ],
      "name": "Approval",
      "type": "event"
    },
    {
      "anonymous": false,
      "inputs": [
        {
          "indexed": true,
          "internalType": "address",
          "name": "owner",
          "type": "address"
        },
        {
          "indexed": true,
          "internalType": "address",
          "name": "operator",
          "type": "address"
        },
        {
          "indexed": false,
          "internalType": "bool",
          "name": "approved",
          "type": "bool"
        }
      ],
      "name": "ApprovalForAll",
      "type": "event"
    },
    {
      "anonymous": false,
      "inputs": [
        {
          "indexed": true,
          "internalType": "address",
          "name": "receiver",
          "type": "address"
        }
      ],
      "name": "ReceiverChanged",
      "type": "event"
    },
    {
      "anonymous": false,
      "inputs": [
        {
          "indexed": true,
          "internalType": "address",
          "name": "from",
          "type": "address"
        },
        {
          "indexed": true,
          "internalType": "address",
          "name": "to",
          "type": "address"
        },
        {
          "indexed": true,
          "internalType": "uint256",
          "name": "tokenId",
          "type": "uint256"
        }
      ],
      "name": "Transfer",
      "type": "event"
    },
    {
      "inputs": [],
      "name": "_receiver",
      "outputs": [
        {
          "internalType": "address",
          "name": "",
          "type": "address"
        }
      ],
      "stateMutability": "view",
      "type": "function"
    },
    {
      "inputs": [
        {
          "internalType": "contract ISuperToken",
          "name": "_superToken",
          "type": "address"
        },
        {
          "internalType": "address",
          "name": "_agreementClass",
          "type": "address"
        },
        {
          "internalType": "bytes32",
          "name": "",
          "type": "bytes32"
        },
        {
          "internalType": "bytes",
          "name": "",
          "type": "bytes"
        },
        {
          "internalType": "bytes",
          "name": "",
          "type": "bytes"
        },
        {
          "internalType": "bytes",
          "name": "_ctx",
          "type": "bytes"
        }
      ],
      "name": "afterAgreementCreated",
      "outputs": [
        {
          "internalType": "bytes",
          "name": "newCtx",
          "type": "bytes"
        }
      ],
      "stateMutability": "nonpayable",
      "type": "function"
    },
    {
      "inputs": [
        {
          "internalType": "contract ISuperToken",
          "name": "_superToken",
          "type": "address"
        },
        {
          "internalType": "address",
          "name": "_agreementClass",
          "type": "address"
        },
        {
          "internalType": "bytes32",
          "name": "",
          "type": "bytes32"
        },
        {
          "internalType": "bytes",
          "name": "",
          "type": "bytes"
        },
        {
          "internalType": "bytes",
          "name": "",
          "type": "bytes"
        },
        {
          "internalType": "bytes",
          "name": "_ctx",
          "type": "bytes"
        }
      ],
      "name": "afterAgreementTerminated",
      "outputs": [
        {
          "internalType": "bytes",
          "name": "newCtx",
          "type": "bytes"
        }
      ],
      "stateMutability": "nonpayable",
      "type": "function"
    },
    {
      "inputs": [
        {
          "internalType": "contract ISuperToken",
          "name": "_superToken",
          "type": "address"
        },
        {
          "internalType": "address",
          "name": "_agreementClass",
          "type": "address"
        },
        {
          "internalType": "bytes32",
          "name": "",
          "type": "bytes32"
        },
        {
          "internalType": "bytes",
          "name": "",
          "type": "bytes"
        },
        {
          "internalType": "bytes",
          "name": "",
          "type": "bytes"
        },
        {
          "internalType": "bytes",
          "name": "_ctx",
          "type": "bytes"
        }
      ],
      "name": "afterAgreementUpdated",
      "outputs": [
        {
          "internalType": "bytes",
          "name": "newCtx",
          "type": "bytes"
        }
      ],
      "stateMutability": "nonpayable",
      "type": "function"
    },
    {
      "inputs": [
        {
          "internalType": "address",
          "name": "to",
          "type": "address"
        },
        {
          "internalType": "uint256",
          "name": "tokenId",
          "type": "uint256"
        }
      ],
      "name": "approve",
      "outputs": [],
      "stateMutability": "nonpayable",
      "type": "function"
    },
    {
      "inputs": [
        {
          "internalType": "address",
          "name": "owner",
          "type": "address"
        }
      ],
      "name": "balanceOf",
      "outputs": [
        {
          "internalType": "uint256",
          "name": "",
          "type": "uint256"
        }
      ],
      "stateMutability": "view",
      "type": "function"
    },
    {
      "inputs": [
        {
          "internalType": "contract ISuperToken",
          "name": "",
          "type": "address"
        },
        {
          "internalType": "address",
          "name": "",
          "type": "address"
        },
        {
          "internalType": "bytes32",
          "name": "",
          "type": "bytes32"
        },
        {
          "internalType": "bytes",
          "name": "",
          "type": "bytes"
        },
        {
          "internalType": "bytes",
          "name": "",
          "type": "bytes"
        }
      ],
      "name": "beforeAgreementCreated",
      "outputs": [
        {
          "internalType": "bytes",
          "name": "",
          "type": "bytes"
        }
      ],
      "stateMutability": "view",
      "type": "function"
    },
    {
      "inputs": [
        {
          "internalType": "contract ISuperToken",
          "name": "",
          "type": "address"
        },
        {
          "internalType": "address",
          "name": "",
          "type": "address"
        },
        {
          "internalType": "bytes32",
          "name": "",
          "type": "bytes32"
        },
        {
          "internalType": "bytes",
          "name": "",
          "type": "bytes"
        },
        {
          "internalType": "bytes",
          "name": "",
          "type": "bytes"
        }
      ],
      "name": "beforeAgreementTerminated",
      "outputs": [
        {
          "internalType": "bytes",
          "name": "",
          "type": "bytes"
        }
      ],
      "stateMutability": "view",
      "type": "function"
    },
    {
      "inputs": [
        {
          "internalType": "contract ISuperToken",
          "name": "",
          "type": "address"
        },
        {
          "internalType": "address",
          "name": "",
          "type": "address"
        },
        {
          "internalType": "bytes32",
          "name": "",
          "type": "bytes32"
        },
        {
          "internalType": "bytes",
          "name": "",
          "type": "bytes"
        },
        {
          "internalType": "bytes",
          "name": "",
          "type": "bytes"
        }
      ],
      "name": "beforeAgreementUpdated",
      "outputs": [
        {
          "internalType": "bytes",
          "name": "",
          "type": "bytes"
        }
      ],
      "stateMutability": "view",
      "type": "function"
    },
    {
      "inputs": [],
      "name": "cfaV1Lib",
      "outputs": [
        {
          "internalType": "contract ISuperfluid",
          "name": "host",
          "type": "address"
        },
        {
          "internalType": "contract IConstantFlowAgreementV1",
          "name": "cfa",
          "type": "address"
        }
      ],
      "stateMutability": "view",
      "type": "function"
    },
    {
      "inputs": [],
      "name": "currentReceiver",
      "outputs": [
        {
          "internalType": "uint256",
          "name": "startTime",
          "type": "uint256"
        },
        {
          "internalType": "address",
          "name": "receiver",
          "type": "address"
        },
        {
          "internalType": "int96",
          "name": "flowRate",
          "type": "int96"
        }
      ],
      "stateMutability": "view",
      "type": "function"
    },
    {
      "inputs": [
        {
          "internalType": "uint256",
          "name": "tokenId",
          "type": "uint256"
        }
      ],
      "name": "getApproved",
      "outputs": [
        {
          "internalType": "address",
          "name": "",
          "type": "address"
        }
      ],
      "stateMutability": "view",
      "type": "function"
    },
    {
      "inputs": [
        {
          "internalType": "address",
          "name": "owner",
          "type": "address"
        },
        {
          "internalType": "address",
          "name": "operator",
          "type": "address"
        }
      ],
      "name": "isApprovedForAll",
      "outputs": [
        {
          "internalType": "bool",
          "name": "",
          "type": "bool"
        }
      ],
      "stateMutability": "view",
      "type": "function"
    },
    {
      "inputs": [],
      "name": "name",
      "outputs": [
        {
          "internalType": "string",
          "name": "",
          "type": "string"
        }
      ],
      "stateMutability": "view",
      "type": "function"
    },
    {
      "inputs": [
        {
          "internalType": "uint256",
          "name": "tokenId",
          "type": "uint256"
        }
      ],
      "name": "ownerOf",
      "outputs": [
        {
          "internalType": "address",
          "name": "",
          "type": "address"
        }
      ],
      "stateMutability": "view",
      "type": "function"
    },
    {
      "inputs": [
        {
          "internalType": "address",
          "name": "from",
          "type": "address"
        },
        {
          "internalType": "address",
          "name": "to",
          "type": "address"
        },
        {
          "internalType": "uint256",
          "name": "tokenId",
          "type": "uint256"
        }
      ],
      "name": "safeTransferFrom",
      "outputs": [],
      "stateMutability": "nonpayable",
      "type": "function"
    },
    {
      "inputs": [
        {
          "internalType": "address",
          "name": "from",
          "type": "address"
        },
        {
          "internalType": "address",
          "name": "to",
          "type": "address"
        },
        {
          "internalType": "uint256",
          "name": "tokenId",
          "type": "uint256"
        },
        {
          "internalType": "bytes",
          "name": "data",
          "type": "bytes"
        }
      ],
      "name": "safeTransferFrom",
      "outputs": [],
      "stateMutability": "nonpayable",
      "type": "function"
    },
    {
      "inputs": [
        {
          "internalType": "address",
          "name": "operator",
          "type": "address"
        },
        {
          "internalType": "bool",
          "name": "approved",
          "type": "bool"
        }
      ],
      "name": "setApprovalForAll",
      "outputs": [],
      "stateMutability": "nonpayable",
      "type": "function"
    },
    {
      "inputs": [
        {
          "internalType": "bytes4",
          "name": "interfaceId",
          "type": "bytes4"
        }
      ],
      "name": "supportsInterface",
      "outputs": [
        {
          "internalType": "bool",
          "name": "",
          "type": "bool"
        }
      ],
      "stateMutability": "view",
      "type": "function"
    },
    {
      "inputs": [],
      "name": "symbol",
      "outputs": [
        {
          "internalType": "string",
          "name": "",
          "type": "string"
        }
      ],
      "stateMutability": "view",
      "type": "function"
    },
    {
      "inputs": [
        {
          "internalType": "uint256",
          "name": "tokenId",
          "type": "uint256"
        }
      ],
      "name": "tokenURI",
      "outputs": [
        {
          "internalType": "string",
          "name": "",
          "type": "string"
        }
      ],
      "stateMutability": "view",
      "type": "function"
    },
    {
      "inputs": [
        {
          "internalType": "address",
          "name": "from",
          "type": "address"
        },
        {
          "internalType": "address",
          "name": "to",
          "type": "address"
        },
        {
          "internalType": "uint256",
          "name": "tokenId",
          "type": "uint256"
        }
      ],
      "name": "transferFrom",
      "outputs": [],
      "stateMutability": "nonpayable",
      "type": "function"
    }
  ],
  "transactionHash": "0x655ae4643688be57ea308b65c52eaed3c684bfe84abb463abea61e886520f93f",
  "args": [
    "0x718F390819f697075b7d538636148AA97b7bFB09",
    "Tradeable Cashflow",
    "TCF",
    "0x22ff293e14F1EC3A09B137e9e06084AFd63adDF9",
    "0xF2d68898557cCb2Cf4C10c3Ef2B034b2a69DAD00"
  ],
  "numDeployments": 1,
  "solcInputHash": "60094641dcec1a25fc8d2d763e53e736",
  "bytecode": "0x60a06040523480156200001157600080fd5b5060405162002f8638038062002f8683398101604081905262000034916200096f565b8181868686816000908051906020019062000051929190620007c5565b50805162000067906001906020840190620007c5565b5050506001600160a01b03831662000083576200008362000a1b565b6001600160a01b0382166200009c576200009c62000a1b565b6001600160a01b038116620000b557620000b562000a1b565b6001600160a01b03828116608052600880546001600160a01b0319168383161790556040805180820182529185168083529051635b69006f60e11b81527fa9214cc96615e0085d3bb077758db69497dc2dce3b2b1e97bc93c3d18d83efd3600482015260208301919063b6d200de90602401602060405180830381865afa15801562000145573d6000803e3d6000fd5b505050506040513d601f19601f820116820180604052508101906200016b919062000a31565b6001600160a01b039081169091528151600680549183166001600160a01b03199283161790556020909201516007805491831691909316179091556040516315a722b960e31b815264150000000160048201529084169063ad3915c890602401600060405180830381600087803b158015620001e657600080fd5b505af1158015620001fb573d6000803e3d6000fd5b50505050505050620002158560016200022060201b60201c565b505050505062000c5b565b6001600160a01b0382166200027c5760405162461bcd60e51b815260206004820181905260248201527f4552433732313a206d696e7420746f20746865207a65726f206164647265737360448201526064015b60405180910390fd5b6000818152600260205260409020546001600160a01b031615620002e35760405162461bcd60e51b815260206004820152601c60248201527f4552433732313a20746f6b656e20616c7265616479206d696e74656400000000604482015260640162000273565b620002f3600083836001620003c5565b6000818152600260205260409020546001600160a01b0316156200035a5760405162461bcd60e51b815260206004820152601c60248201527f4552433732313a20746f6b656e20616c7265616479206d696e74656400000000604482015260640162000273565b6001600160a01b038216600081815260036020908152604080832080546001019055848352600290915280822080546001600160a01b0319168417905551839291907fddf252ad1be2c89b69c2b068fc378daa952ba7f163c4a11628f55a4df523b3ef908290a45050565b620003d083620003d6565b50505050565b6001600160a01b038116620003fe57604051631e4ec46b60e01b815260040160405180910390fd5b600654604051631e51d6a760e11b81526001600160a01b03838116600483015290911690633ca3ad4e90602401602060405180830381865afa15801562000449573d6000803e3d6000fd5b505050506040513d601f19601f820116820180604052508101906200046f919062000a51565b156200048e576040516325d52a0960e21b815260040160405180910390fd5b6008546001600160a01b0390811690821603620004a85750565b600754608051600854604051631cd43d1160e31b81526001600160a01b0392831660048201523060248201529082166044820152600092919091169063e6a1e88890606401608060405180830381865afa1580156200050b573d6000803e3d6000fd5b505050506040513d601f19601f8201168201806040525081019062000531919062000a8d565b5050915050600081600b0b131562000609576008546080516200056f9160069130916001600160a01b03169062000654602090811b62000a5617901c565b60805160075460405163e8e7e2d160e01b81526001600160a01b03808416600483015230602483015262000609938693909291169063e8e7e2d190604401602060405180830381865afa158015620005cb573d6000803e3d6000fd5b505050506040513d601f19601f82011682018060405250810190620005f1919062000acc565b60066200067660201b62000a7617909392919060201c565b600880546001600160a01b0319166001600160a01b0384169081179091556040517f7dfb1d59db37a3fd2e15e796c189dcab714cdbb18650d68a1de58f8fa60718c990600090a25050565b604080516000815260208101909152620003d090859085908590859062000698565b604080516000815260208101909152620003d09085908590859085906200077e565b845460018601546040805160008152602081019091526001600160a01b03928316926339255d5b921690819063b4b333c690620006df9088908b908b906044810162000b18565b60408051808303601f1901815291815260208201805160e094851b6001600160e01b03909116179052519185901b6001600160e01b03191682526200072c93925090869060040162000b58565b6000604051808303816000875af11580156200074c573d6000803e3d6000fd5b505050506040513d6000823e601f3d908101601f1916820160405262000776919081019062000b92565b505050505050565b845460018601546040805160008152602081019091526001600160a01b03928316926339255d5b92169081906362fc305e90620006df9089908b908a906044810162000be7565b828054620007d39062000c1f565b90600052602060002090601f016020900481019282620007f7576000855562000842565b82601f106200081257805160ff191683800117855562000842565b8280016001018555821562000842579182015b828111156200084257825182559160200191906001019062000825565b506200085092915062000854565b5090565b5b8082111562000850576000815560010162000855565b6001600160a01b03811681146200088157600080fd5b50565b634e487b7160e01b600052604160045260246000fd5b60005b83811015620008b75781810151838201526020016200089d565b83811115620003d05750506000910152565b60006001600160401b0380841115620008e657620008e662000884565b604051601f8501601f19908116603f0116810190828211818310171562000911576200091162000884565b816040528093508581528686860111156200092b57600080fd5b6200093b8660208301876200089a565b5050509392505050565b600082601f8301126200095757600080fd5b6200096883835160208501620008c9565b9392505050565b600080600080600060a086880312156200098857600080fd5b855162000995816200086b565b60208701519095506001600160401b0380821115620009b357600080fd5b620009c189838a0162000945565b95506040880151915080821115620009d857600080fd5b50620009e78882890162000945565b9350506060860151620009fa816200086b565b608087015190925062000a0d816200086b565b809150509295509295909350565b634e487b7160e01b600052600160045260246000fd5b60006020828403121562000a4457600080fd5b815162000968816200086b565b60006020828403121562000a6457600080fd5b815180151581146200096857600080fd5b8051600b81900b811462000a8857600080fd5b919050565b6000806000806080858703121562000aa457600080fd5b8451935062000ab66020860162000a75565b6040860151606090960151949790965092505050565b60006020828403121562000adf57600080fd5b620009688262000a75565b6000815180845262000b048160208601602086016200089a565b601f01601f19169290920160200192915050565b6001600160a01b03858116825284811660208301528316604082015260806060820181905260009062000b4e9083018462000aea565b9695505050505050565b6001600160a01b038416815260606020820181905260009062000b7e9083018562000aea565b828103604084015262000b4e818562000aea565b60006020828403121562000ba557600080fd5b81516001600160401b0381111562000bbc57600080fd5b8201601f8101841362000bce57600080fd5b62000bdf84825160208401620008c9565b949350505050565b6001600160a01b03858116825284166020820152600b83900b604082015260806060820181905260009062000b4e9083018462000aea565b600181811c9082168062000c3457607f821691505b60208210810362000c5557634e487b7160e01b600052602260045260246000fd5b50919050565b6080516122d062000cb6600039600081816105910152818161073101528181610bb401528181610c5201528181610d4601528181610dc801528181610e39015281816117d30152818161188101526118b701526122d06000f3fe608060405234801561001057600080fd5b50600436106101425760003560e01c806355586a31116100b857806395d89b411161007c57806395d89b41146102e9578063a22cb465146102f1578063b88d4fde14610304578063c87b56dd14610317578063d86ed3e5146101d7578063e985e9c51461032a57600080fd5b806355586a31146102555780635f9e7d771461028f5780636352211e146102a257806370a08231146102b5578063884d1f40146102d657600080fd5b8063230dbd291161010a578063230dbd29146101d757806323b872dd146101ea57806328d2bf94146101fd57806330d9c9151461021c57806342842e0e1461022f57806353c11f991461024257600080fd5b806301ffc9a71461014757806302964ff11461016f57806306fdde031461019a578063081812fc146101af578063095ea7b3146101c2575b600080fd5b61015a6101553660046119aa565b610366565b60405190151581526020015b60405180910390f35b600854610182906001600160a01b031681565b6040516001600160a01b039091168152602001610166565b6101a26103b8565b6040516101669190611a1f565b6101826101bd366004611a32565b61044a565b6101d56101d0366004611a60565b610471565b005b6101a26101e5366004611ad5565b61058b565b6101d56101f8366004611ba0565b610653565b6040805160008082526020820181905291810191909152606001610166565b6101a261022a366004611be1565b610684565b6101d561023d366004611ba0565b6106e7565b6101a2610250366004611ad5565b610702565b60065460075461026f916001600160a01b03908116911682565b604080516001600160a01b03938416815292909116602083015201610166565b6101a261029d366004611be1565b6107dc565b6101826102b0366004611a32565b610843565b6102c86102c3366004611c80565b6108a3565b604051908152602001610166565b6101a26102e4366004611be1565b610929565b6101a261098c565b6101d56102ff366004611cab565b61099b565b6101d5610312366004611d53565b6109aa565b6101a2610325366004611a32565b6109e2565b61015a610338366004611e02565b6001600160a01b03918216600090815260056020908152604080832093909416825291909152205460ff1690565b60006001600160e01b031982166380ac58cd60e01b148061039757506001600160e01b03198216635b5e139f60e01b145b806103b257506301ffc9a760e01b6001600160e01b03198316145b92915050565b6060600080546103c790611e30565b80601f01602080910402602001604051908101604052809291908181526020018280546103f390611e30565b80156104405780601f1061041557610100808354040283529160200191610440565b820191906000526020600020905b81548152906001019060200180831161042357829003601f168201915b5050505050905090565b600061045582610a96565b506000908152600460205260409020546001600160a01b031690565b600061047c82610843565b9050806001600160a01b0316836001600160a01b0316036104ee5760405162461bcd60e51b815260206004820152602160248201527f4552433732313a20617070726f76616c20746f2063757272656e74206f776e656044820152603960f91b60648201526084015b60405180910390fd5b336001600160a01b038216148061050a575061050a8133610338565b61057c5760405162461bcd60e51b815260206004820152603d60248201527f4552433732313a20617070726f76652063616c6c6572206973206e6f7420746f60448201527f6b656e206f776e6572206f7220617070726f76656420666f7220616c6c00000060648201526084016104e5565b6105868383610af8565b505050565b606089897f00000000000000000000000000000000000000000000000000000000000000006001600160a01b0316826001600160a01b0316146105e15760405163c1ab6dc160e01b815260040160405180910390fd5b6007546001600160a01b0382811691161461060f57604051637f0ed44d60e11b815260040160405180910390fd5b6006546001600160a01b03163314610639576040516282b42960e81b815260040160405180910390fd5b6106438585610b66565b9c9b505050505050505050505050565b61065d3382610e6a565b6106795760405162461bcd60e51b81526004016104e590611e6a565b610586838383610ee9565b60405162461bcd60e51b815260206004820152602f60248201527f556e737570706f727465642063616c6c6261636b202d204265666f726520416760448201526e1c99595b595b9d0810dc99585d1959608a1b60648201526060906084016104e5565b610586838383604051806020016040528060008152506109aa565b6006546060906001600160a01b0316331461072f576040516282b42960e81b815260040160405180910390fd5b7f00000000000000000000000000000000000000000000000000000000000000006001600160a01b03168a6001600160a01b031614158061077e57506007546001600160a01b038a8116911614155b156107c25782828080601f0160208091040260200160405190810160405280939291908181526020018383808284376000920191909152509293506107cf92505050565b6107cc8383610b66565b90505b9998505050505050505050565b60405162461bcd60e51b815260206004820152603360248201527f556e737570706f727465642063616c6c6261636b202d20204265666f7265204160448201527219dc99595b595b9d0815195c9b5a5b985d1959606a1b60648201526060906084016104e5565b6000818152600260205260408120546001600160a01b0316806103b25760405162461bcd60e51b8152602060048201526018602482015277115490cdcc8c4e881a5b9d985b1a59081d1bdad95b88125160421b60448201526064016104e5565b60006001600160a01b03821661090d5760405162461bcd60e51b815260206004820152602960248201527f4552433732313a2061646472657373207a65726f206973206e6f7420612076616044820152683634b21037bbb732b960b91b60648201526084016104e5565b506001600160a01b031660009081526003602052604090205490565b60405162461bcd60e51b815260206004820152602f60248201527f556e737570706f727465642063616c6c6261636b202d204265666f726520416760448201526e1c99595b595b9d081d5c19185d1959608a1b60648201526060906084016104e5565b6060600180546103c790611e30565b6109a633838361105a565b5050565b6109b43383610e6a565b6109d05760405162461bcd60e51b81526004016104e590611e6a565b6109dc84848484611128565b50505050565b60606109ed82610a96565b6000610a0460408051602081019091526000815290565b90506000815111610a245760405180602001604052806000815250610a4f565b80610a2e8461115b565b604051602001610a3f929190611f0a565b6040516020818303038152906040525b9392505050565b6040805160008152602081019091526109dc9085908590859085906111ee565b6040805160008152602081019091526109dc9085908590859085906112cd565b6000818152600260205260409020546001600160a01b0316610af55760405162461bcd60e51b8152602060048201526018602482015277115490cdcc8c4e881a5b9d985b1a59081d1bdad95b88125160421b60448201526064016104e5565b50565b600081815260046020526040902080546001600160a01b0319166001600160a01b0384169081179091558190610b2d82610843565b6001600160a01b03167f8c5be1e5ebec7d5bd14f71427d1e84f3dd0314c0f7b2291e5b200ac8c7c3b92560405160405180910390a45050565b606082828080601f016020809104026020016040519081016040528093929190818152602001838380828437600092018290525060075460405163e8e7e2d160e01b81526001600160a01b037f000000000000000000000000000000000000000000000000000000000000000081166004830152306024830152969750919516935063e8e7e2d192506044019050602060405180830381865afa158015610c11573d6000803e3d6000fd5b505050506040513d601f19601f82011682018060405250810190610c359190611f39565b600754600854604051631cd43d1160e31b81526001600160a01b037f000000000000000000000000000000000000000000000000000000000000000081166004830152306024830152918216604482015292935060009291169063e6a1e88890606401608060405180830381865afa158015610cb5573d6000803e3d6000fd5b505050506040513d601f19601f82011682018060405250810190610cd99190611ece565b505091505060008183610cec9190611f6a565b905080600b0b600003610d7157610d6a86868080601f0160208091040260200160405190810160405280939291908181526020018383808284376000920191909152505060085460069392503091506001600160a01b03167f0000000000000000000000000000000000000000000000000000000000000000611312565b9350610e61565b81600b0b600014610ded57610d6a86868080601f0160208091040260200160405190810160405280939291908181526020018383808284376000920191909152505060085460069392506001600160a01b031690507f000000000000000000000000000000000000000000000000000000000000000085611341565b610e5e86868080601f0160208091040260200160405190810160405280939291908181526020018383808284376000920191909152505060085460069392506001600160a01b031690507f000000000000000000000000000000000000000000000000000000000000000085611366565b93505b50505092915050565b600080610e7683610843565b9050806001600160a01b0316846001600160a01b03161480610ebd57506001600160a01b0380821660009081526005602090815260408083209388168352929052205460ff165b80610ee15750836001600160a01b0316610ed68461044a565b6001600160a01b0316145b949350505050565b826001600160a01b0316610efc82610843565b6001600160a01b031614610f225760405162461bcd60e51b81526004016104e590611fc3565b6001600160a01b038216610f845760405162461bcd60e51b8152602060048201526024808201527f4552433732313a207472616e7366657220746f20746865207a65726f206164646044820152637265737360e01b60648201526084016104e5565b610f91838383600161138b565b826001600160a01b0316610fa482610843565b6001600160a01b031614610fca5760405162461bcd60e51b81526004016104e590611fc3565b600081815260046020908152604080832080546001600160a01b03199081169091556001600160a01b0387811680865260038552838620805460001901905590871680865283862080546001019055868652600290945282852080549092168417909155905184937fddf252ad1be2c89b69c2b068fc378daa952ba7f163c4a11628f55a4df523b3ef91a4505050565b816001600160a01b0316836001600160a01b0316036110bb5760405162461bcd60e51b815260206004820152601960248201527f4552433732313a20617070726f766520746f2063616c6c65720000000000000060448201526064016104e5565b6001600160a01b03838116600081815260056020908152604080832094871680845294825291829020805460ff191686151590811790915591519182527f17307eab39ab6107e8899845ad3d59bd9653f200f220920489ca2b5937696c31910160405180910390a3505050565b611133848484610ee9565b61113f84848484611394565b6109dc5760405162461bcd60e51b81526004016104e590612008565b6060600061116883611495565b600101905060008167ffffffffffffffff81111561118857611188611ce4565b6040519080825280601f01601f1916602001820160405280156111b2576020820181803683370190505b5090508181016020015b600019016f181899199a1a9b1b9c1cb0b131b232b360811b600a86061a8153600a85049450846111bc57509392505050565b845460018601546040805160008152602081019091526001600160a01b03928316926339255d5b921690819063b4b333c6906112339088908b908b906044810161205a565b60408051808303601f1901815291815260208201805160e094851b6001600160e01b03909116179052519185901b6001600160e01b031916825261127e93925090869060040161208e565b6000604051808303816000875af115801561129d573d6000803e3d6000fd5b505050506040513d6000823e601f3d908101601f191682016040526112c59190810190612109565b505050505050565b845460018601546040805160008152602081019091526001600160a01b03928316926339255d5b92169081906362fc305e906112339089908b908a906044810161213e565b604080516000815260208101909152606090611337908790879087908790879061156d565b9695505050505050565b6040805160008152602081019091526060906113379087908790879087908790611656565b60408051600081526020810190915260609061133790879087908790879087906116bd565b6109dc836116ea565b60006001600160a01b0384163b1561148a57604051630a85bd0160e11b81526001600160a01b0385169063150b7a02906113d8903390899088908890600401612174565b6020604051808303816000875af1925050508015611413575060408051601f3d908101601f19168201909252611410918101906121a7565b60015b611470573d808015611441576040519150601f19603f3d011682016040523d82523d6000602084013e611446565b606091505b5080516000036114685760405162461bcd60e51b81526004016104e590612008565b805181602001fd5b6001600160e01b031916630a85bd0160e11b149050610ee1565b506001949350505050565b60008072184f03e93ff9f4daa797ed6e38ed64bf6a1f0160401b83106114d45772184f03e93ff9f4daa797ed6e38ed64bf6a1f0160401b830492506040015b6d04ee2d6d415b85acef81000000008310611500576d04ee2d6d415b85acef8100000000830492506020015b662386f26fc10000831061151e57662386f26fc10000830492506010015b6305f5e1008310611536576305f5e100830492506008015b612710831061154a57612710830492506004015b6064831061155c576064830492506002015b600a83106103b25760010192915050565b855460018701546040805160008152602081019091526060926001600160a01b0390811692634329d29392911690819063b4b333c6906115b69089908c908c906044810161205a565b60408051808303601f1901815291815260208201805160e094851b6001600160e01b03909116179052519185901b6001600160e01b03191682526116039392509087908c906004016121c4565b6000604051808303816000875af1158015611622573d6000803e3d6000fd5b505050506040513d6000823e601f3d908101601f1916820160405261164a9190810190612219565b50979650505050505050565b855460018701546060916001600160a01b0390811691634329d2939116806350209a62888a8960005b6040519080825280601f01601f1916602001820160405280156116a9576020820181803683370190505b506040516024016115b6949392919061213e565b855460018701546060916001600160a01b0390811691634329d2939116806362fc305e888a89600061167f565b6001600160a01b03811661171157604051631e4ec46b60e01b815260040160405180910390fd5b600654604051631e51d6a760e11b81526001600160a01b03838116600483015290911690633ca3ad4e90602401602060405180830381865afa15801561175b573d6000803e3d6000fd5b505050506040513d601f19601f8201168201806040525081019061177f919061227d565b1561179d576040516325d52a0960e21b815260040160405180910390fd5b6008546001600160a01b03908116908216036117b65750565b600754600854604051631cd43d1160e31b81526001600160a01b037f0000000000000000000000000000000000000000000000000000000000000000811660048301523060248301529182166044820152600092919091169063e6a1e88890606401608060405180830381865afa158015611835573d6000803e3d6000fd5b505050506040513d601f19601f820116820180604052508101906118599190611ece565b5050915050600081600b0b1315611949576008546118a59060069030906001600160a01b03167f0000000000000000000000000000000000000000000000000000000000000000610a56565b60075460405163e8e7e2d160e01b81527f00000000000000000000000000000000000000000000000000000000000000006001600160a01b03818116600484015230602484015261194993869391169063e8e7e2d190604401602060405180830381865afa15801561191b573d6000803e3d6000fd5b505050506040513d601f19601f8201168201806040525081019061193f9190611f39565b6006929190610a76565b600880546001600160a01b0319166001600160a01b0384169081179091556040517f7dfb1d59db37a3fd2e15e796c189dcab714cdbb18650d68a1de58f8fa60718c990600090a25050565b6001600160e01b031981168114610af557600080fd5b6000602082840312156119bc57600080fd5b8135610a4f81611994565b60005b838110156119e25781810151838201526020016119ca565b838111156109dc5750506000910152565b60008151808452611a0b8160208601602086016119c7565b601f01601f19169290920160200192915050565b602081526000610a4f60208301846119f3565b600060208284031215611a4457600080fd5b5035919050565b6001600160a01b0381168114610af557600080fd5b60008060408385031215611a7357600080fd5b8235611a7e81611a4b565b946020939093013593505050565b60008083601f840112611a9e57600080fd5b50813567ffffffffffffffff811115611ab657600080fd5b602083019150836020828501011115611ace57600080fd5b9250929050565b600080600080600080600080600060c08a8c031215611af357600080fd5b8935611afe81611a4b565b985060208a0135611b0e81611a4b565b975060408a0135965060608a013567ffffffffffffffff80821115611b3257600080fd5b611b3e8d838e01611a8c565b909850965060808c0135915080821115611b5757600080fd5b611b638d838e01611a8c565b909650945060a08c0135915080821115611b7c57600080fd5b50611b898c828d01611a8c565b915080935050809150509295985092959850929598565b600080600060608486031215611bb557600080fd5b8335611bc081611a4b565b92506020840135611bd081611a4b565b929592945050506040919091013590565b600080600080600080600060a0888a031215611bfc57600080fd5b8735611c0781611a4b565b96506020880135611c1781611a4b565b955060408801359450606088013567ffffffffffffffff80821115611c3b57600080fd5b611c478b838c01611a8c565b909650945060808a0135915080821115611c6057600080fd5b50611c6d8a828b01611a8c565b989b979a50959850939692959293505050565b600060208284031215611c9257600080fd5b8135610a4f81611a4b565b8015158114610af557600080fd5b60008060408385031215611cbe57600080fd5b8235611cc981611a4b565b91506020830135611cd981611c9d565b809150509250929050565b634e487b7160e01b600052604160045260246000fd5b604051601f8201601f1916810167ffffffffffffffff81118282101715611d2357611d23611ce4565b604052919050565b600067ffffffffffffffff821115611d4557611d45611ce4565b50601f01601f191660200190565b60008060008060808587031215611d6957600080fd5b8435611d7481611a4b565b93506020850135611d8481611a4b565b925060408501359150606085013567ffffffffffffffff811115611da757600080fd5b8501601f81018713611db857600080fd5b8035611dcb611dc682611d2b565b611cfa565b818152886020838501011115611de057600080fd5b8160208401602083013760006020838301015280935050505092959194509250565b60008060408385031215611e1557600080fd5b8235611e2081611a4b565b91506020830135611cd981611a4b565b600181811c90821680611e4457607f821691505b602082108103611e6457634e487b7160e01b600052602260045260246000fd5b50919050565b6020808252602d908201527f4552433732313a2063616c6c6572206973206e6f7420746f6b656e206f776e6560408201526c1c881bdc88185c1c1c9bdd9959609a1b606082015260800190565b8051600b81900b8114611ec957600080fd5b919050565b60008060008060808587031215611ee457600080fd5b84519350611ef460208601611eb7565b6040860151606090960151949790965092505050565b60008351611f1c8184602088016119c7565b835190830190611f308183602088016119c7565b01949350505050565b600060208284031215611f4b57600080fd5b610a4f82611eb7565b634e487b7160e01b600052601160045260246000fd5b600081600b0b83600b0b60008212826b7fffffffffffffffffffffff03821381151615611f9957611f99611f54565b826b7fffffffffffffffffffffff19038212811615611fba57611fba611f54565b50019392505050565b60208082526025908201527f4552433732313a207472616e736665722066726f6d20696e636f72726563742060408201526437bbb732b960d91b606082015260800190565b60208082526032908201527f4552433732313a207472616e7366657220746f206e6f6e20455243373231526560408201527131b2b4bb32b91034b6b83632b6b2b73a32b960711b606082015260800190565b6001600160a01b038581168252848116602083015283166040820152608060608201819052600090611337908301846119f3565b6001600160a01b03841681526060602082018190526000906120b2908301856119f3565b828103604084015261133781856119f3565b600082601f8301126120d557600080fd5b81516120e3611dc682611d2b565b8181528460208386010111156120f857600080fd5b610ee18260208301602087016119c7565b60006020828403121561211b57600080fd5b815167ffffffffffffffff81111561213257600080fd5b610ee1848285016120c4565b6001600160a01b03858116825284166020820152600b83900b6040820152608060608201819052600090611337908301846119f3565b6001600160a01b0385811682528416602082015260408101839052608060608201819052600090611337908301846119f3565b6000602082840312156121b957600080fd5b8151610a4f81611994565b6001600160a01b03851681526080602082018190526000906121e8908301866119f3565b82810360408401526121fa81866119f3565b9050828103606084015261220e81856119f3565b979650505050505050565b6000806040838503121561222c57600080fd5b825167ffffffffffffffff8082111561224457600080fd5b612250868387016120c4565b9350602085015191508082111561226657600080fd5b50612273858286016120c4565b9150509250929050565b60006020828403121561228f57600080fd5b8151610a4f81611c9d56fea264697066735822122041eb5bc09dc7cb2e3fe57f4953510bf43a0a33150a99c816efa72ce8f7fd479b64736f6c634300080e0033",
  "devdoc": {
    "errors": {
      "InvalidAgreement()": [
        {
          "details": "Thrown when the agreement is other than the Constant Flow Agreement V1"
        }
      ],
      "InvalidReceiver()": [
        {
          "details": "Thrown when the receiver is the zero adress."
        }
      ],
      "InvalidToken()": [
        {
          "details": "Thrown when the token being streamed to this contract is invalid"
        }
      ],
      "ReceiverIsSuperApp()": [
        {
          "details": "Thrown when receiver is also a super app."
        }
      ],
      "Unauthorized()": [
        {
          "details": "Thrown when the callback caller is not the host."
        }
      ]
    },
    "kind": "dev",
    "methods": {
      "approve(address,uint256)": {
        "details": "See {IERC721-approve}."
      },
      "balanceOf(address)": {
        "details": "See {IERC721-balanceOf}."
      },
      "currentReceiver()": {
        "returns": {
          "flowRate": "Flow rate from this contract to the receiver.",
          "receiver": "Receiving address.",
          "startTime": "Start time of the current flow."
        }
      },
      "getApproved(uint256)": {
        "details": "See {IERC721-getApproved}."
      },
      "isApprovedForAll(address,address)": {
        "details": "See {IERC721-isApprovedForAll}."
      },
      "name()": {
        "details": "See {IERC721Metadata-name}."
      },
      "ownerOf(uint256)": {
        "details": "See {IERC721-ownerOf}."
      },
      "safeTransferFrom(address,address,uint256)": {
        "details": "See {IERC721-safeTransferFrom}."
      },
      "safeTransferFrom(address,address,uint256,bytes)": {
        "details": "See {IERC721-safeTransferFrom}."
      },
      "setApprovalForAll(address,bool)": {
        "details": "See {IERC721-setApprovalForAll}."
      },
      "supportsInterface(bytes4)": {
        "details": "See {IERC165-supportsInterface}."
      },
      "symbol()": {
        "details": "See {IERC721Metadata-symbol}."
      },
      "tokenURI(uint256)": {
        "details": "See {IERC721Metadata-tokenURI}."
      },
      "transferFrom(address,address,uint256)": {
        "details": "See {IERC721-transferFrom}."
      }
    },
    "title": "Tradeable Cashflow NFT",
    "version": 1
  },
  "userdoc": {
    "kind": "user",
    "methods": {
      "_receiver()": {
        "notice": "This is the current receiver that all streams will be redirected to."
      },
      "currentReceiver()": {
        "notice": "Returns current receiver's address, start time, and flow rate."
      }
    },
    "notice": "Inherits the ERC721 NFT interface from Open Zeppelin and the RedirectAll logic to redirect all incoming streams to the current NFT holder.",
    "version": 1
  },
  "storageLayout": {
    "storage": [
      {
        "astId": 103,
        "contract": "contracts/TradeableCashflow.sol:TradeableCashflow",
        "label": "_name",
        "offset": 0,
        "slot": "0",
        "type": "t_string_storage"
      },
      {
        "astId": 105,
        "contract": "contracts/TradeableCashflow.sol:TradeableCashflow",
        "label": "_symbol",
        "offset": 0,
        "slot": "1",
        "type": "t_string_storage"
      },
      {
        "astId": 109,
        "contract": "contracts/TradeableCashflow.sol:TradeableCashflow",
        "label": "_owners",
        "offset": 0,
        "slot": "2",
        "type": "t_mapping(t_uint256,t_address)"
      },
      {
        "astId": 113,
        "contract": "contracts/TradeableCashflow.sol:TradeableCashflow",
        "label": "_balances",
        "offset": 0,
        "slot": "3",
        "type": "t_mapping(t_address,t_uint256)"
      },
      {
        "astId": 117,
        "contract": "contracts/TradeableCashflow.sol:TradeableCashflow",
        "label": "_tokenApprovals",
        "offset": 0,
        "slot": "4",
        "type": "t_mapping(t_uint256,t_address)"
      },
      {
        "astId": 123,
        "contract": "contracts/TradeableCashflow.sol:TradeableCashflow",
        "label": "_operatorApprovals",
        "offset": 0,
        "slot": "5",
        "type": "t_mapping(t_address,t_mapping(t_address,t_bool))"
      },
      {
        "astId": 6630,
        "contract": "contracts/TradeableCashflow.sol:TradeableCashflow",
        "label": "cfaV1Lib",
        "offset": 0,
        "slot": "6",
        "type": "t_struct(InitData)2789_storage"
      },
      {
        "astId": 6637,
        "contract": "contracts/TradeableCashflow.sol:TradeableCashflow",
        "label": "_receiver",
        "offset": 0,
        "slot": "8",
        "type": "t_address"
      }
    ],
    "types": {
      "t_address": {
        "encoding": "inplace",
        "label": "address",
        "numberOfBytes": "20"
      },
      "t_bool": {
        "encoding": "inplace",
        "label": "bool",
        "numberOfBytes": "1"
      },
      "t_contract(IConstantFlowAgreementV1)4482": {
        "encoding": "inplace",
        "label": "contract IConstantFlowAgreementV1",
        "numberOfBytes": "20"
      },
      "t_contract(ISuperfluid)6136": {
        "encoding": "inplace",
        "label": "contract ISuperfluid",
        "numberOfBytes": "20"
      },
      "t_mapping(t_address,t_bool)": {
        "encoding": "mapping",
        "key": "t_address",
        "label": "mapping(address => bool)",
        "numberOfBytes": "32",
        "value": "t_bool"
      },
      "t_mapping(t_address,t_mapping(t_address,t_bool))": {
        "encoding": "mapping",
        "key": "t_address",
        "label": "mapping(address => mapping(address => bool))",
        "numberOfBytes": "32",
        "value": "t_mapping(t_address,t_bool)"
      },
      "t_mapping(t_address,t_uint256)": {
        "encoding": "mapping",
        "key": "t_address",
        "label": "mapping(address => uint256)",
        "numberOfBytes": "32",
        "value": "t_uint256"
      },
      "t_mapping(t_uint256,t_address)": {
        "encoding": "mapping",
        "key": "t_uint256",
        "label": "mapping(uint256 => address)",
        "numberOfBytes": "32",
        "value": "t_address"
      },
      "t_string_storage": {
        "encoding": "bytes",
        "label": "string",
        "numberOfBytes": "32"
      },
      "t_struct(InitData)2789_storage": {
        "encoding": "inplace",
        "label": "struct CFAv1Library.InitData",
        "members": [
          {
            "astId": 2785,
            "contract": "contracts/TradeableCashflow.sol:TradeableCashflow",
            "label": "host",
            "offset": 0,
            "slot": "0",
            "type": "t_contract(ISuperfluid)6136"
          },
          {
            "astId": 2788,
            "contract": "contracts/TradeableCashflow.sol:TradeableCashflow",
            "label": "cfa",
            "offset": 0,
            "slot": "1",
            "type": "t_contract(IConstantFlowAgreementV1)4482"
          }
        ],
        "numberOfBytes": "64"
      },
      "t_uint256": {
        "encoding": "inplace",
        "label": "uint256",
        "numberOfBytes": "32"
      }
    }
  }
}